{
    "abi": [
        {
            "type": "function",
            "name": "BET_AMOUNT",
            "inputs": [],
            "outputs": [
                {
                    "name": "",
                    "type": "uint256",
                    "internalType": "uint256"
                }
            ],
            "stateMutability": "view"
        },
        {
            "type": "function",
            "name": "MAX_TIMEOUT",
            "inputs": [],
            "outputs": [
                {
                    "name": "",
                    "type": "uint256",
                    "internalType": "uint256"
                }
            ],
            "stateMutability": "view"
        },
        {
            "type": "function",
            "name": "balance",
            "inputs": [
                {
                    "name": "",
                    "type": "address",
                    "internalType": "address"
                }
            ],
            "outputs": [
                {
                    "name": "",
                    "type": "uint256",
                    "internalType": "uint256"
                }
            ],
            "stateMutability": "view"
        },
        {
            "type": "function",
            "name": "calculateCommit",
            "inputs": [
                {
                    "name": "bet_player",
                    "type": "uint8",
                    "internalType": "enum rockpaperscissors.bet"
                },
                {
                    "name": "secret",
                    "type": "bytes",
                    "internalType": "bytes"
                }
            ],
            "outputs": [
                {
                    "name": "",
                    "type": "bytes32",
                    "internalType": "bytes32"
                }
            ],
            "stateMutability": "pure"
        },
        {
            "type": "function",
            "name": "createGame",
            "inputs": [
                {
                    "name": "commit_banker",
                    "type": "bytes32",
                    "internalType": "bytes32"
                }
            ],
            "outputs": [
                {
                    "name": "",
                    "type": "uint256",
                    "internalType": "uint256"
                }
            ],
            "stateMutability": "nonpayable"
        },
        {
            "type": "function",
            "name": "deposit",
            "inputs": [],
            "outputs": [],
            "stateMutability": "payable"
        },
        {
            "type": "function",
            "name": "finishGame",
            "inputs": [
                {
                    "name": "game_id",
                    "type": "uint256",
                    "internalType": "uint256"
                }
            ],
            "outputs": [],
            "stateMutability": "nonpayable"
        },
        {
            "type": "function",
            "name": "finished_games",
            "inputs": [
                {
                    "name": "",
                    "type": "uint256",
                    "internalType": "uint256"
                }
            ],
            "outputs": [
                {
                    "name": "",
                    "type": "uint256",
                    "internalType": "uint256"
                }
            ],
            "stateMutability": "view"
        },
        {
            "type": "function",
            "name": "games",
            "inputs": [
                {
                    "name": "",
                    "type": "uint256",
                    "internalType": "uint256"
                }
            ],
            "outputs": [
                {
                    "name": "banker",
                    "type": "address",
                    "internalType": "address"
                },
                {
                    "name": "player",
                    "type": "address",
                    "internalType": "address"
                },
                {
                    "name": "commit_banker",
                    "type": "bytes32",
                    "internalType": "bytes32"
                },
                {
                    "name": "bet_banker",
                    "type": "uint8",
                    "internalType": "enum rockpaperscissors.bet"
                },
                {
                    "name": "bet_player",
                    "type": "uint8",
                    "internalType": "enum rockpaperscissors.bet"
                },
                {
                    "name": "bet_time",
                    "type": "uint256",
                    "internalType": "uint256"
                },
                {
                    "name": "result",
                    "type": "uint8",
                    "internalType": "enum rockpaperscissors.GameResult"
                }
            ],
            "stateMutability": "view"
        },
        {
            "type": "function",
            "name": "getBalance",
            "inputs": [],
            "outputs": [
                {
                    "name": "",
                    "type": "uint256",
                    "internalType": "uint256"
                }
            ],
            "stateMutability": "view"
        },
        {
            "type": "function",
            "name": "joinGame",
            "inputs": [
                {
                    "name": "game_id",
                    "type": "uint256",
                    "internalType": "uint256"
                },
                {
                    "name": "bet_player",
                    "type": "uint8",
                    "internalType": "enum rockpaperscissors.bet"
                }
            ],
            "outputs": [],
            "stateMutability": "nonpayable"
        },
        {
            "type": "function",
            "name": "max_game_id",
            "inputs": [],
            "outputs": [
                {
                    "name": "",
                    "type": "uint256",
                    "internalType": "uint256"
                }
            ],
            "stateMutability": "view"
        },
        {
            "type": "function",
            "name": "new_games",
            "inputs": [
                {
                    "name": "",
                    "type": "uint256",
                    "internalType": "uint256"
                }
            ],
            "outputs": [
                {
                    "name": "",
                    "type": "uint256",
                    "internalType": "uint256"
                }
            ],
            "stateMutability": "view"
        },
        {
            "type": "function",
            "name": "pending_games",
            "inputs": [
                {
                    "name": "",
                    "type": "uint256",
                    "internalType": "uint256"
                }
            ],
            "outputs": [
                {
                    "name": "",
                    "type": "uint256",
                    "internalType": "uint256"
                }
            ],
            "stateMutability": "view"
        },
        {
            "type": "function",
            "name": "reveal",
            "inputs": [
                {
                    "name": "bet_banker",
                    "type": "uint8",
                    "internalType": "enum rockpaperscissors.bet"
                },
                {
                    "name": "secret",
                    "type": "bytes",
                    "internalType": "bytes"
                },
                {
                    "name": "game_id",
                    "type": "uint256",
                    "internalType": "uint256"
                }
            ],
            "outputs": [],
            "stateMutability": "nonpayable"
        },
        {
            "type": "function",
            "name": "withdraw",
            "inputs": [
                {
                    "name": "amount",
                    "type": "uint256",
                    "internalType": "uint256"
                }
            ],
            "outputs": [],
            "stateMutability": "nonpayable"
        },
        {
            "type": "event",
            "name": "GameFinished",
            "inputs": [
                {
                    "name": "game_id",
                    "type": "uint256",
                    "indexed": false,
                    "internalType": "uint256"
                },
                {
                    "name": "result",
                    "type": "uint8",
                    "indexed": false,
                    "internalType": "enum rockpaperscissors.GameResult"
                }
            ],
            "anonymous": false
        },
        {
            "type": "event",
            "name": "JoinGame",
            "inputs": [
                {
                    "name": "game_id",
                    "type": "uint256",
                    "indexed": false,
                    "internalType": "uint256"
                },
                {
                    "name": "player",
                    "type": "address",
                    "indexed": false,
                    "internalType": "address"
                }
            ],
            "anonymous": false
        },
        {
            "type": "event",
            "name": "NewGame",
            "inputs": [
                {
                    "name": "game_id",
                    "type": "uint256",
                    "indexed": false,
                    "internalType": "uint256"
                },
                {
                    "name": "banker",
                    "type": "address",
                    "indexed": false,
                    "internalType": "address"
                }
            ],
            "anonymous": false
        }
    ],
    "bytecode": {
        "object": "0x6080604052600060015534801561001557600080fd5b50611542806100256000396000f3fe6080604052600436106100f35760003560e01c80638a22d7d21161008a578063d0e30db011610059578063d0e30db0146102dd578063de38eb3a146102e5578063e3aeaf55146102fb578063e3d670d71461031b57600080fd5b80638a22d7d21461025d578063ca6649c51461027d578063cf48d5821461029d578063cfe186b2146102bd57600080fd5b80632e1a7d4d116100c65780632e1a7d4d146101e15780633f9326af14610203578063457391e51461021d578063608927041461023d57600080fd5b8063031a6732146100f8578063050f7d9b1461012b578063117a5b901461014157806312065fe0146101bf575b600080fd5b34801561010457600080fd5b5061011861011336600461115c565b610348565b6040519081526020015b60405180910390f35b34801561013757600080fd5b5061011860015481565b34801561014d57600080fd5b506101ac61015c36600461115c565b6000602081905290815260409020805460018201546002830154600384015460048501546005909501546001600160a01b03948516959390941693919260ff808316936101009093048116921687565b60405161012297969594939291906111ac565b3480156101cb57600080fd5b5033600090815260056020526040902054610118565b3480156101ed57600080fd5b506102016101fc36600461115c565b610369565b005b34801561020f57600080fd5b50610118655af3107a400081565b34801561022957600080fd5b5061011861023836600461115c565b6104a4565b34801561024957600080fd5b5061011861025836600461115c565b6106ba565b34801561026957600080fd5b5061011861027836600461115c565b6106ca565b34801561028957600080fd5b5061020161029836600461121e565b6106da565b3480156102a957600080fd5b506102016102b83660046112ed565b610873565b3480156102c957600080fd5b506102016102d836600461115c565b610aa4565b610201610e7c565b3480156102f157600080fd5b5061011861025881565b34801561030757600080fd5b50610118610316366004611344565b610f00565b34801561032757600080fd5b50610118610336366004611392565b60056020526000908152604090205481565b6004818154811061035857600080fd5b600091825260209091200154905081565b336000908152600560205260409020548111156103a15760405162461bcd60e51b8152600401610398906113c2565b60405180910390fd5b804710156103f15760405162461bcd60e51b815260206004820152601d60248201527f496e73756666696369656e7420636f6e74726163742062616c616e63650000006044820152606401610398565b3360009081526005602052604081208054839290610410908490611406565b9091555050604051600090339083908381818185875af1925050503d8060008114610457576040519150601f19603f3d011682016040523d82523d6000602084013e61045c565b606091505b50509050806104a05760405162461bcd60e51b815260206004820152601060248201526f2a3930b739b332b9103330b4b632b21760811b6044820152606401610398565b5050565b33600090815260056020526040812054655af3107a400011156104d95760405162461bcd60e51b8152600401610398906113c2565b3360009081526005602052604081208054655af3107a400092906104fe908490611406565b925050819055506001806000828254610517919061141d565b90915550506040805160e08101825233815260006020820152908101839052606081016003815260200160038152602001600081526020016000600381111561056257610562611175565b90526001805460009081526020818152604091829020845181546001600160a01b03199081166001600160a01b0392831617835592860151828601805490941691161790915590830151600282015560608301516003808301805493949293909260ff199091169184908111156105db576105db611175565b021790555060808201518160030160016101000a81548160ff0219169083600381111561060a5761060a611175565b021790555060a0820151600482015560c082015160058201805460ff1916600183600381111561063c5761063c611175565b021790555050600180546003805492830181556000527fc2575a0e9e593c00f959f8c92f12db2869c3395a3b0502d05e2516446f71f85b909101819055604080519182523360208301527fb4ab36f4d2fee8698466065c4ee831b4748994cdd8de1c10a834a1d9b945233792500160405180910390a1505060015490565b6002818154811061035857600080fd5b6003818154811061035857600080fd5b33600090815260056020526040902054655af3107a4000111561070f5760405162461bcd60e51b8152600401610398906113c2565b6000828152602081905260409020600101546001600160a01b0316156107705760405162461bcd60e51b815260206004820152601660248201527511d85b59481a5cc8185b1c9958591e481a9bda5b995960521b6044820152606401610398565b3360009081526005602052604081208054655af3107a40009290610795908490611406565b909155505060008281526020819052604090206001810180546001600160a01b0319163317905560039081018054839261ff0019909116906101009084908111156107e2576107e2611175565b0217905550600082815260208190526040812042600491820155805460018101825591527f8a35acfbc15ff81a39ae7d344fd709f28e8600b4aa8c65c6b64bfe7fe36bd19b01829055610836600383610f34565b604080518381523360208201527f94a23cd53bf5ba1d2903ed9a1cd6418ae0d681ab5bbae27df124f57f70a9b62791015b60405180910390a15050565b6000818152602081905260409020600101546001600160a01b03166108d35760405162461bcd60e51b815260206004820152601660248201527511d85b59481a5cc81b9bdd081a9bda5b9959081e595d60521b6044820152606401610398565b60008181526020819052604081206005015460ff1660038111156108f9576108f9611175565b146109465760405162461bcd60e51b815260206004820152601860248201527f47616d6520697320616c72656164792066696e697368656400000000000000006044820152606401610398565b6000818152602081905260409020546001600160a01b031633146109b65760405162461bcd60e51b815260206004820152602160248201527f4f6e6c792062616e6b65722063616e2072657665616c2074686520726573756c6044820152601d60fa1b6064820152608401610398565b600081815260208190526040902060040154610258906109d69042611406565b1115610a0e5760405162461bcd60e51b8152602060048201526007602482015266151a5b595bdd5d60ca1b6044820152606401610398565b610a188383610f00565b60008281526020819052604090206002015414610a685760405162461bcd60e51b815260206004820152600e60248201526d125b9d985b1a59081cd958dc995d60921b6044820152606401610398565b600081815260208190526040902060039081018054859260ff19909116906001908490811115610a9a57610a9a611175565b0217905550505050565b60008181526020819052604081206005015460ff166003811115610aca57610aca611175565b14610b175760405162461bcd60e51b815260206004820152601860248201527f47616d65206973206e6f742066696e69736865642079657400000000000000006044820152606401610398565b6000818152602081905260408120600401544290610b38906102589061141d565b108015610b695750600082815260208190526040902060039081015460ff1681811115610b6757610b67611175565b145b15610b7657506001610c3f565b6000828152602081905260409020600401544290610b97906102589061141d565b10158015610bca5750600082815260208190526040902060039081015460ff1681811115610bc757610bc7611175565b14155b610c165760405162461bcd60e51b815260206004820181905260248201527f42616e6b657220646964206e6f742072657665616c2074686520726573756c746044820152606401610398565b600082815260208190526040902060030154610c3c9060ff610100820481169116611012565b90505b6000816003811115610c5357610c53611175565b1415610c925760405162461bcd60e51b815260206004820152600e60248201526d125b9d985b1a59081c995cdd5b1d60921b6044820152606401610398565b6000828152602081905260409020600501805482919060ff19166001836003811115610cc057610cc0611175565b02179055506001816003811115610cd957610cd9611175565b1415610d3057610cf0655af3107a40006002611435565b600083815260208181526040808320600101546001600160a01b03168352600590915281208054909190610d2590849061141d565b90915550610e0b9050565b6003816003811115610d4457610d44611175565b1415610dc257600082815260208181526040808320546001600160a01b03168352600590915281208054655af3107a40009290610d8290849061141d565b9091555050600082815260208181526040808320600101546001600160a01b03168352600590915281208054655af3107a40009290610d2590849061141d565b610dd3655af3107a40006002611435565b600083815260208181526040808320546001600160a01b03168352600590915281208054909190610e0590849061141d565b90915550505b600280546001810182556000919091527f405787fa12a823e0f2b7631cc41b3ba8828b3321ca811111fa75cd3aa3bb5ace01829055610e4b600483610f34565b7f68385227a15d4c8b0102f32af285874cc22f99ac24ca21b5e45451166bac7af58282604051610867929190611454565b60003411610eda5760405162461bcd60e51b815260206004820152602560248201527f4465706f73697420616d6f756e74206d75737420626520677265617465722074604482015264068616e20360dc1b6064820152608401610398565b3360009081526005602052604081208054349290610ef990849061141d565b9091555050565b60008282604051602001610f15929190611471565b6040516020818303038152906040528051906020012090505b92915050565b6000610f8f83805480602002602001604051908101604052809291908181526020018280548015610f8457602002820191906000526020600020905b815481526020019060010190808311610f70575b50505050508361110c565b835490915081101561100d5782548390610fab90600190611406565b81548110610fbb57610fbb6114c5565b9060005260206000200154838281548110610fd857610fd86114c5565b906000526020600020018190555082805480610ff657610ff66114db565b600190038181906000526020600020016000905590555b505050565b600081600381111561102657611026611175565b83600381111561103857611038611175565b141561104657506003610f2e565b600083600381111561105a5761105a611175565b1480156110785750600282600381111561107657611076611175565b145b1561108557506001610f2e565b600183600381111561109957611099611175565b1480156110b7575060008260038111156110b5576110b5611175565b145b156110c457506001610f2e565b60028360038111156110d8576110d8611175565b1480156110f6575060018260038111156110f4576110f4611175565b145b1561110357506001610f2e565b50600292915050565b6000805b8351811015611153578284828151811061112c5761112c6114c5565b60200260200101511415611141579050610f2e565b8061114b816114f1565b915050611110565b50509051919050565b60006020828403121561116e57600080fd5b5035919050565b634e487b7160e01b600052602160045260246000fd5b600481106111a957634e487b7160e01b600052602160045260246000fd5b50565b6001600160a01b038881168252871660208201526040810186905260e081016111d48661118b565b8560608301526111e38561118b565b8460808301528360a08301526111f88361118b565b8260c083015298975050505050505050565b80356004811061121957600080fd5b919050565b6000806040838503121561123157600080fd5b823591506112416020840161120a565b90509250929050565b634e487b7160e01b600052604160045260246000fd5b600082601f83011261127157600080fd5b813567ffffffffffffffff8082111561128c5761128c61124a565b604051601f8301601f19908116603f011681019082821181831017156112b4576112b461124a565b816040528381528660208588010111156112cd57600080fd5b836020870160208301376000602085830101528094505050505092915050565b60008060006060848603121561130257600080fd5b61130b8461120a565b9250602084013567ffffffffffffffff81111561132757600080fd5b61133386828701611260565b925050604084013590509250925092565b6000806040838503121561135757600080fd5b6113608361120a565b9150602083013567ffffffffffffffff81111561137c57600080fd5b61138885828601611260565b9150509250929050565b6000602082840312156113a457600080fd5b81356001600160a01b03811681146113bb57600080fd5b9392505050565b602080825260149082015273496e73756666696369656e742062616c616e636560601b604082015260600190565b634e487b7160e01b600052601160045260246000fd5b600082821015611418576114186113f0565b500390565b60008219821115611430576114306113f0565b500190565b600081600019048311821515161561144f5761144f6113f0565b500290565b828152604081016114648361118b565b8260208301529392505050565b61147a8361118b565b8260f81b81526000825160005b818110156114a45760208186018101516001868401015201611487565b818111156114b6576000600183860101525b50919091016001019392505050565b634e487b7160e01b600052603260045260246000fd5b634e487b7160e01b600052603160045260246000fd5b6000600019821415611505576115056113f0565b506001019056fea2646970667358221220ad8b22387a6976d44b69eb71a0248240435cd9ea5127b5d5a8c6635e71bfed0664736f6c634300080a0033",
        "linkReferences": {}
    },
    "methodIdentifiers": {
        "BET_AMOUNT()": "3f9326af",
        "MAX_TIMEOUT()": "de38eb3a",
        "balance(address)": "e3d670d7",
        "calculateCommit(uint8,bytes)": "e3aeaf55",
        "createGame(bytes32)": "457391e5",
        "deposit()": "d0e30db0",
        "finishGame(uint256)": "cfe186b2",
        "finished_games(uint256)": "60892704",
        "games(uint256)": "117a5b90",
        "getBalance()": "12065fe0",
        "joinGame(uint256,uint8)": "ca6649c5",
        "max_game_id()": "050f7d9b",
        "new_games(uint256)": "8a22d7d2",
        "pending_games(uint256)": "031a6732",
        "reveal(uint8,bytes,uint256)": "cf48d582",
        "withdraw(uint256)": "2e1a7d4d"
    },
    "id": 0
}